:020000040800F2
:100000001809002059010008452200080D1E0008AB
:1000100000000000000000000000000000000000E0
:100020000000000000000000000000009D24000807
:10003000000000000000000047220008A124000882
:100040006B010008000000006B0100086B01000854
:100050006B0100086B0100086B0100086B010008D0
:10006000000000006B0100086B0100086B01000834
:100070006B0100086B0100086B0100080000000024
:100080006B0100086B010008000000006B01000814
:100090006B0100086B0100086B0100086B01000890
:1000A0006B0100086B0100086B010008ED280008D7
:1000B0006B01000800F002F800F03EF80CA030C818
:1000C000083824182D18A246671EAB4654465D46D4
:1000D000AC4201D100F030F87E460F3E0FCCB64660
:1000E0000126334200D0FB1AA246AB4633431847E1
:1000F000D82F0000F82F0000103A02D378C878C13A
:10010000FAD8520701D330C830C101D504680C6059
:10011000704700000023002400250026103A01D378
:1001200078C1FBD8520700D330C100D50B607047AF
:100130001FB51FBD10B510BD00F07BF91146FFF7CC
:10014000F7FF02F0ABFC00F093F903B4FFF7F2FF06
:1001500003BC00F099F900000748804707480047B2
:10016000FEE7FEE7FEE7FEE7FEE7FEE70448054997
:10017000054A064B7047000041250008B5000008FD
:100180001803002018090020180500201805002079
:10019000FEB5054610460C46184373D0AE468C4655
:1001A0000020AD1A01469C4167D366460027012412
:1001B0003D46B61A9D4102D313463A462124654670
:1001C00076462F04360C3E432D0CB61A9D4104D3BF
:1001D000150C1B042B4312041034654676462F067B
:1001E000360A3E432D0AB61A9D4104D3150E1B0252
:1001F0002B4312020834654676462F0736093E43E4
:100200002D09B61A9D4104D3150F1B012B43120172
:10021000241D65467646AF07B6083E43AD08B61ABC
:100220009D4104D3950F9B002B439200A41C65466F
:100230007646EF0776083E436D08B61A9D411AD3FD
:1002400092185B41641C16E00018764665464941E9
:10025000B71A9D410191009009D36046B11A9841A7
:100260008E468446009801990025401C6941DD07AF
:1002700052082A435B08641EE6D57246634603B003
:10028000F0BDFFE700200146C046C0462A4623468F
:10029000F5E701E004C0091F0429FBD28B0701D553
:1002A0000280801CC90700D00270704700290BD063
:1002B000C30702D00270401C491E022904D38307E1
:1002C00002D50280801C891EE3E70022EEE70022AF
:1002D000DFE7002203098B422CD3030A8B4211D3A0
:1002E00000239C464EE003460B433CD400224308C7
:1002F0008B4231D303098B421CD3030A8B4201D3B7
:1003000094463FE0C3098B4201D3CB01C01A52414E
:1003100083098B4201D38B01C01A524143098B429E
:1003200001D34B01C01A524103098B4201D30B0187
:10033000C01A5241C3088B4201D3CB00C01A5241AC
:1003400083088B4201D38B00C01A524143088B4271
:1003500001D34B00C01A5241411A00D2014652410A
:10036000104670475DE0CA0F00D04942031000D329
:100370004042534000229C4603098B422DD3030A7E
:100380008B4212D3FC22890112BA030A8B420CD38E
:10039000890192118B4208D3890192118B4204D3B7
:1003A00089013AD0921100E08909C3098B4201D337
:1003B000CB01C01A524183098B4201D38B01C01A71
:1003C000524143098B4201D34B01C01A52410309E8
:1003D0008B4201D30B01C01A5241C3088B4201D397
:1003E000CB00C01A524183088B4201D38B00C01A44
:1003F0005241D9D243088B4201D34B00C01A52411B
:10040000411A00D20146634652415B10104601D3A7
:100410004042002B00D54942704763465B1000D331
:10042000404201B50020C046C04602BD704770473B
:100430007047754600F024F8AE46050069465346FD
:10044000C008C000854618B020B5FFF78FFE60BC1D
:1004500000274908B6460026C0C5C0C5C0C5C0C5EE
:10046000C0C5C0C5C0C5C0C5403D49008D46704728
:1004700010B50446C046C0462046FFF766FE10BDD4
:1004800000487047B802002001491820ABBEFEE7C3
:1004900026000200704730B5014620314B7800221B
:1004A000022B04D0042383630A70012030BD03684B
:1004B0001C680E25AC431C6003681C68640864005B
:1004C0001C600123056C1C46C06BAC4044604B7043
:1004D0000A70002030BD70B50024014620314A78F2
:1004E000022A03D004218163012416E00268136804
:1004F0000E25AB431360026813685B085B00136052
:100500000122056C1346AB40C56B6B604A7000223C
:100510000A70416B002900D08847204670BD00005A
:10052000F0B5002258E0012393401C460C4052D005
:1005300096082B4DB6007519AF68AC4695072E0F7F
:100540000F25B540AE463D400927FF06B84201D110
:1005500000270FE0234FB84201D101270AE0224FC4
:10056000B84201D1022705E0204FB84201D103274C
:1005700000E00527B740AF4212D11D4D2E68A643BB
:100580002E606E68A6436E60AE68A643AE60EE68ED
:10059000A643EE606546AD687446A5436446A56013
:1005A000056856000324B440A5430560D508AD0096
:1005B0002D182E6AAC465507EF0E0F25BD40AE43F1
:1005C00065462E62C568A543C56045689D43456084
:1005D0008368A3438360521C0B46D340A3D1F0BD74
:1005E000000001400004004800080048000C0048DA
:1005F00000040140F8B5002303240125BAE02E468B
:100600009E40B44632407CD00E79B607B60F012E1C
:1006100001D0022E17D186682746B6465E00B74045
:1006200000967646BE43B646CF68009EB7407646F3
:100630003743876046686746BE430F79FF06FF0F62
:100640009F40374347600E79F643B6070ED0C66821
:100650002746B4465E00B646B7406646BE43B4463B
:100660008F687646B74066463743C7600E79B6074F
:10067000B60F022E14D1DE08B60036180096366A80
:100680005F07B446FE0E0F27B646B7406646BE4328
:10069000B4460F697646B74066463743009E3762D8
:1006A00006682746B4465E00B646B7406646BE4377
:1006B0000F79B446BF07BF0F7646B740664637434B
:1006C00007604E68B603B60F53D02D4FBE692E4358
:1006D000BE61BE699F08F607F60F2A4EBF00BE191D
:1006E0000096B6680F27B4469E07360FB646B74049
:1006F0006646BE430927FF06B446B84202D100272A
:1007000010E036E0204FB84201D101270AE01F4F28
:10071000B84201D1022705E01D4FB84201D103279D
:1007200000E005277646B74066463743009EB7602F
:10073000184E36684F689643FF0300D51643154F91
:100740003E607E684F689643BF0300D51643114F45
:100750007E60BE684F689643FF0200D516430D4F7A
:10076000BE60FE684F689643BF0200D51643094A33
:10077000D6605B1C0A681646DE4000D03FE7F8BD35
:10078000001002400000014000040048000800483A
:10079000000C004800040140002A01D0816170472C
:1007A0008162704701488068704700007400002033
:1007B00070B5024640325378202B1CD11378012BA0
:1007C00019D00123137024245470046825689D43B4
:1007D0002560046825681E03B54325600468256804
:1007E0000D432560006801681943016020205070A6
:1007F0000020107070BD022070BD70B502464032FE
:100800005378202B1BD11378012B18D0012414709E
:100810002423537003681D68A5431D6005682B6879
:100820000F263602B34309021943296000680168A4
:1008300021430160202050700020107070BD022004
:1008400070BD70B5040014D0242120464030054608
:10085000417020680168490849000160204600F0A5
:1008600075F90021616469702163A97029700846D7
:1008700070BD012070BD000070B5040006D0254693
:10088000403568780026002802D005E0012070BDC0
:100890002E70204600F076F92420687020680168E8
:1008A0004908490001600F216068090688432168F2
:1008B000086121688A680120C00382438A60E16878
:1008C0000129A16808D02122920211432268916077
:1008D000E168022902D005E00143F7E7012122681F
:1008E000C902516021684A680F4B1A434A60216867
:1008F000CA688243CA60616920690843A169090224
:1009000008432168C860216AE069084321680860DB
:10091000206801680122114301606664202068702C
:100920002663AE70002070BD00800002FFB5054652
:1009300004464035687881B0202878D1287801288D
:1009400075D001202870FFF72DFF07460122009087
:100950001923D103204601F0C3FA00283CD12220FC
:1009600068701020A870002666640398606204987E
:1009700060856663618D2F48FF2903D9FF22228598
:1009800000903BE0618D218500903DE0204602997A
:1009900001F092FA16E001F0CBFA00281CD1206891
:1009A000406A616A0870606A401C6062208D401E67
:1009B00081B22185608D401E6085608D002801D048
:1009C00000290CD0608D0A9900283A462046E2D1D1
:1009D00001F0EEFA00281CD0012005B0F0BD009710
:1009E0000022802120460A9B01F07AFA0028F3D1E8
:1009F000608DFF2805D9FF222285009601231B0662
:100A0000C4E7608D20850096208D0123C2B25B066D
:100A1000BCE721682020C86121684A68064B1A405B
:100A20004A606870AE702E700020D6E7FFE70220A3
:100A3000D3E700000024008000E800FEFFB5054673
:100A400004464035687881B0202878D1287801287C
:100A500075D001202870FFF7A5FE074601220090FF
:100A60001923D103204601F03BFA00283CD1212074
:100A700068701020A870002666640398606204986D
:100A800060856663618D2F48FF2903D9FF22228587
:100A900000903BE0618D218500903DE02046029969
:100AA00001F00AFA16E001F0A9FA00281CD1606AE8
:100AB000216800788862606A401C6062608D401E18
:100AC0006085208D401E80B22085618D002901D077
:100AD00000280CD0608D0A9900283A462046E2D1C1
:100AE00001F066FA00281CD0012005B0F0BD009787
:100AF0000022802120460A9B01F0F2F90028F3D160
:100B0000608DFF2805D9FF222285009601231B0650
:100B1000C4E7608D20850096208D0123C2B25B065C
:100B2000BCE721682020C86121684A68064B1A404A
:100B30004A606870AE702E700020D6E7FFE7022092
:100B4000D3E700000020008000E800FE10B5006838
:100B5000094988420FD10948C16901229205914390
:100B6000C161074C01152046FFF7DAFC0121C902DB
:100B70002046FFF7D5FC10BD005800400010024091
:100B80000004004810B586B0044614216846FFF7FB
:100B90009EFB1349206888421FD1124C61690120D5
:100BA0008004014361616169014003200591800275
:100BB0000090122001900020029003200390012059
:100BC000049069460848FFF715FDE169012080059A
:100BD0000143E161E1690140059106B010BD0000EB
:100BE00000580040001002400004004870B50400A6
:100BF0000FD021681548086021681548086003CCAB
:100C000041602068083C21688860FFF7CBFD0546FD
:100C10000CE0012070BDFFF7C5FD401B272805D95A
:100C20002068C068400701D0032070BD2068C068FC
:100C30004007F0D120680269E1688A4201D0016171
:100C400001E004490160002070BD0000CCCC000030
:100C500055550000AAAA0000006802490160002062
:100C600070470000AAAA000002488168027889182B
:100C7000816070477400002010B50648016810229A
:100C800011430160002000F007F800F027F8002071
:100C900010BD00000020024070B504460D4D7D20BF
:100CA0002978C000FFF715FB01460B480068FFF7E5
:100CB00010FB00F071FE002809D1042C07D200229D
:100CC0002146401E00F02AF800206C6070BD012013
:100CD00070BD0000740000208000002008B50848A6
:100CE0008169012211438161816911400091C269CA
:100CF00001040A43C261C0690840009008BD0000B9
:100D000000100240002805DBC106C90E0120884002
:100D1000014908607047000000E100E010B501F0F3
:100D20009BFE10BDF8B505460068354CC00352D592
:100D3000E0690026C00007D4E16920040143E161B5
:100D4000E1690140012600912E480168C90510D4CF
:100D50000168821511430160FFF724FD074604E096
:100D6000FFF720FDC01B642824D826480068C00572
:100D7000F6D5206A03273F02384020D06968394001
:100D800081421CD0206A226AB843012109040A4327
:100D90002262226A8A4322622062C0070FD0FFF7D4
:100DA00001FD009008E0FFF7FDFC0099411A16488C
:100DB000814201D90320F8BD206A8007F3D5206A5B
:100DC0006968B84308432062002E04D0E16901201D
:100DD00000078143E1612878C00705D0206BA9682E
:100DE00080088000084320632878800605D5206BA2
:100DF00010218843E968084320630020F8BD000003
:100E0000001002400070004088130000F8B50F4643
:100E1000060059D03A4D2868C007C00FB84209D221
:100E2000286840084000384328602868C007C00F81
:100E3000B84249D13068334C81070CD5400704D5FE
:100E4000606807210902084360606068F0218843F8
:100E5000B168084360603078C00726D07068012808
:100E60000ED0216802280ED0890700292CDA61688B
:100E70008908890001436160FFF794FC00900DE050
:100E800021688903F1E78901EFE7FFF78BFC0099FF
:100E9000411A1D48814201D90320F8BD60680C2128
:100EA0000840716889008842EFD12868C007C00FE8
:100EB000B8420BD9286840084000384328602868A9
:100EC000C007C00FB84201D00120F8BD30784007FC
:100ED00006D56068072109028843F168084360600D
:100EE00000F028F86168094A0906090F515CC840FA
:100EF000074908600020FFF7CFFE0020F8BD000082
:100F0000002002400010024088130000B0300008AA
:100F1000800000200448054900684968044A4905E2
:100F2000490F515CC840704780000020001002400B
:100F3000C030000810B514A30FCB88B06C460FC4A6
:100F400015A30FCB0FC4184A51680C200B46034061
:100F50001648042B16D0082B14D18B021B0F6C469D
:100F6000E45CD26A04AB1207120F9A5CC90305D580
:100F700000231946FFF70CF9214601E020460C49F1
:100F800001F044FD08B010BD02030405060708097E
:100F90000A0B0C0D0E0F10100102030405060708C2
:100FA000090A0B0C0D0E0F100010024000127A00FF
:100FB00000093D00FEB5040070D02078DC4DC0076C
:100FC0004AD068680007800F012807D068680007CA
:100FD000800F022809D16868C00306D528688003FD
:100FE0003AD560680028E7D036E06168012914D05E
:100FF00001208004002901D0052914D02A6801218C
:1010000009048A432A6029688143296060680028AE
:1010100016D0FFF7C7FB06460EE028680121090439
:1010200008432860F2E7296801432960F5E7FFF7E4
:10103000B9FB801B64286ED828688003F7D50BE0C5
:10104000FFF7B0FB064604E0FFF7ACFB801B64280B
:10105000F1D828688003F7D420780126800700287B
:101060003CDA68680007800F07D068680007800FC7
:10107000022809D16868C00306D42868800716D5FD
:10108000E06801280AD112E0E0680028286816D03C
:1010900030432860FFF786FB074605E043E1FFF792
:1010A00081FBC01B0228C6D828688007F7D52868AE
:1010B000F82188432169C900084328600EE04008F0
:1010C00040002860FFF76EFB074604E0FFF76AFB6D
:1010D000C01B0228AFD828688007F7D42078000703
:1010E00022D5E0690028686A0ED030436862FFF7B5
:1010F00059FB074604E0FFF755FBC01B02289AD8AE
:10110000686A8007F7D50FE0400840006862FFF783
:1011100049FB074605E09DE0FFF744FBC01B0228A2
:1011200089D8686A8007F7D4207804274007002808
:1011300060DA00200190E869C00008D4E969B806C7
:101140000143E961E969014001200091019079487A
:101150000168C90511D40168821511430160FFF7C8
:1011600021FB009005E0FFF71DFB0099401A642861
:1011700070D870480068C005F5D5A06801280AD06D
:10118000002801D0052810D0286A400840002862B5
:10119000286AB84301E0286A30432862A068002822
:1011A00012D0FFF7FFFA00900AE0286A384328625D
:1011B000F1E7FFF7F7FA0099411A5F48814249D8F1
:1011C000286A8007F5D50DE0FFF7ECFA009006E0FD
:1011D000FFF7E8FA0099411A574881423AD8286A3D
:1011E0008007F5D40198002804D0E96901200007A0
:1011F0008143E9612078C00635D5606901280CD0AB
:10120000401D686B23D038436863686B400840001A
:101210006863FFF7C7FA064622E0686B38436863E5
:10122000686B30436863FFF7BDFA064604E0FFF7DA
:10123000B9FA801B02285BD8686B8007F7D5686B0A
:10124000F8218843A169C900084368630BE0B843EB
:101250006863F4E74CE0FFF7A5FA801B022847D843
:10126000686B8007F7D4206A00285ED06968090798
:10127000890F022942D0012636060228286805D0A7
:10128000B0432860FFF78EFA044633E0B04328608D
:10129000FFF788FA074604E0FFF784FAC01B02282C
:1012A00026D828688001F7D4E86AE16A00090001BD
:1012B0000843E862616AA06A084369683D22120433
:1012C000914308436860286830432860FFF76AFA52
:1012D000044604E0FFF766FA001B022808D82868D5
:1012E0008001F7D521E0FFF75DFA001B022801D944
:1012F0000320FEBD28688001F5D416E00128F8D04F
:101300006868E96A01221204636A02409A420AD1BB
:101310000907E26A090F914205D10F2189040840AB
:10132000A16A884201D00120FEBD0020FEBD000060
:10133000001002400070004088130000F8B504005F
:101340000CD0606A002500280AD025616561264618
:101350004036A562707F002808D00BE00120F8BD60
:101360006168C81FFD38F2D0E561F0E735772046A7
:1013700000F05CF8022272772068016840239943EC
:1013800001600723E1681B02994201D9002001E0B6
:10139000012000030F273F02B94202D0994200D03A
:1013A000A562FF236168053319402127A368BF02A6
:1013B0003B40194323691340227D1943D207D20FC2
:1013C00011430123A2695B021A401143E2693823E9
:1013D0001A401143226A80231A401143A26A9B01DA
:1013E0001A40114322681160A1690422090C1140BE
:1013F000626A10231A401143626B08231A4011439A
:101400000F23E2681B021A4011430122120310400D
:101410000143206841602068C16952109143C16155
:101420002566012070770020F8BD000070B586B0F9
:10143000044614216846FEF74AFF244B2268012027
:101440000024234980040225224E9A4220D18B6930
:10145000821113438B618B69134005934B694210D2
:1014600013434B614B69134005934A6902434A6138
:10147000496902940140059140200090092003949D
:10148000019504946946C006FFF7B4F8082011E0FE
:10149000114B9A4217D1CB6912141343CB61CB691C
:1014A000134005934A6902434A6149690140052096
:1014B00040030591009002940394694601950494B9
:1014C0003046FFF797F806B070BD000000300140CD
:1014D000001002400004004800380040FFB50446F8
:1014E0004068FF21254600260531403581B017466A
:1014F000884202D1A06800280CD0287F012815D08E
:1015000001202877FFF74EF90090687F01280FD05F
:1015100002268FE00420687713460498029A009010
:101520001146204600F03EF905B0F0BD0220FBE771
:10153000029800287DD0002F7BD0042068770020FF
:10154000206602992164AF80EF80A063A087E087C6
:10155000E064206507210120E268090200038A4255
:101560002268536801D9834300E003435360012399
:10157000A068DB034022984208D1206803689343A7
:101580000360206803681702BB4303602068036898
:101590005B0602D4036813430360E06888421AD9EB
:1015A00038E020688168C90709D0007B216C087089
:1015B000206C401C2064E888401EE8800BE0FFF7A8
:1015C000F1F80099411A0498814202D3401C02D0DC
:1015D00036E0002834D0E8880028E2D11DE02068F9
:1015E0008168C90709D0C068216C0880206C801C04
:1015F0002064E888401EE8800CE0FFF7D3F801463D
:101600000098091A0498814202D3401C02D017E0C6
:10161000002815D0E8880028E1D12046009A0499D6
:1016200000F012FE002801D020202066206E002845
:1016300000D001260120687700202877304673E724
:101640000326F7E7FFB5054604464035287F002707
:1016500081B01646012809D001202877FFF7A2F8AB
:101660000090687F012804D0022795E0022005B091
:10167000F0BD0298002872D0002E70D00320687749
:10168000002020660299A163A687E6872064A880CF
:10169000E8802065E0640122A068D20340219042E6
:1016A00008D1206802688A430260206802680B0241
:1016B0001A43026020680268520602D402680A4394
:1016C00002600721E06809028842606826D9002884
:1016D00001D0012E1ED1A06B21680088C86006E0F1
:1016E00020688168890709D5A16B0988C160A06B52
:1016F000801CA063E08F401EE0870BE0FFF752F8EC
:101700000099411A0498814202D3401C02D039E06A
:10171000002837D0E08F0028E2D126E0002801D051
:10172000012E1FD1A06B21680078087306E02068A5
:101730008168890709D5A16B09780173A06B401CEA
:10174000A063E08F401EE0870CE0FFF72BF80099C4
:10175000411A0498814203D3401C03D012E01AE0DE
:1017600000280FD0E08F0028E1D12046009A04998C
:1017700000F0A6FD002801D020202066A0680028E7
:1017800002D005E0032707E02068C1688068009068
:10179000206E002800D001270120687700202877DC
:1017A000384664E7FFB5044683B00120019000206D
:1017B000254640350090287F0C9F1E4601280FD0FB
:1017C00001202877FEF7EEFF0290687F616801280C
:1017D0000DD0CA1FFD3A08D1A168002905D102E049
:1017E000022007B0F0BD042801D00220D1E0049807
:1017F000002820D0059800281DD0002E1BD0687F1F
:10180000042801D00520687700202066059921640E
:10181000EE80AE800499A163E687A687E064206528
:1018200007210120E268090200038A422268536806
:1018300003D9834302E00120ABE0034353602068F7
:101840000268520603D4026840231A430260E0682B
:101850008842606844D9002801D0012E39D1A06B9C
:1018600021680088C860A06B801CA063E08F401EC8
:10187000E0872EE020688168890710D5E18F002974
:101880000DD0019901290AD1A16B0988C160A06B13
:10189000801CA063E08F401EE0870020019020683C
:1018A0008168C9070DD0E98800290AD0C068216C79
:1018B0000880206C801C2064E888401EE88001209D
:1018C0000190FEF76FFF0299401AB84201D3781CCD
:1018D0005ED1E08F0028CDD1E8880028CAD146E04B
:1018E000002801D0012E3CD1A06B2168007808733C
:1018F000A06B401CA063E08F401EE08731E02068B1
:101900008168890710D5E18F00290DD0019901293F
:101910000AD1A16B09780173A06B401CA063E08F12
:10192000401EE0870020019020688168C9070DD023
:10193000E98800290AD0007B216C0870206C401CCB
:101940002064E888401EE88001200190FEF72AFF0D
:101950000299401AB84202D3781C02D018E0002F36
:1019600016D0E08F0028CAD1E8880028C7D13946B0
:101970002046029A00F0A4FC002803D00120009029
:10198000202020660120687700202877009828E72B
:1019900003200090F6E70000094910B5401E884278
:1019A00001D9012010BD074C60610321081F01F01F
:1019B00053F80020A06107202061002010BD000026
:1019C000FFFFFF0000E000E070477047F8B50268D5
:1019D0000446D069116896689C4B05461D4020233B
:1019E000002D75D0F7079A4DFF0FBC460D402F43D1
:1019F0006DD02546C7078035002F06D0CF0504D50A
:101A0000012717622A683A432A60820708D5F2073D
:101A100006D0276802223A622A6804273A432A60DD
:101A2000420708D5F20706D02668042232622A68E7
:101A3000022632432A6002070AD50A461A40664641
:101A4000324305D02668082232622E6816432E6083
:101A5000020508D54A0106D501222668D202326263
:101A60002A681A432A602A68002A39D0800606D5D7
:101A7000880604D5616E002901D020468847286871
:101A800021688968490602D4282108422DD02046C1
:101A900000F0F8FD21688868400622D5EFF3108039
:101AA000012282F310888B68402293438B6080F37D
:101AB0001088206F002814D066494163206FFEF71C
:101AC0000AFD00280CD0206F416B08E000E012E016
:101AD000850610D58D060ED5616E9DE0204688479F
:101AE000F8BD2046FFF771FFF8BD2046FFF76DFFF8
:101AF00000202860F8BD256E012D7DD1C5067BD55F
:101B0000CD0679D5102616622268906825464006D3
:101B10004035002845DA216F086840680004000C51
:101B2000E8D02F8B8742E5D968838869202833D095
:101B3000EFF31080012181F3108811683701B94358
:101B4000116080F31088EFF31080012181F3108879
:101B500021688A68520852008A6080F31088EFF387
:101B60001080012181F3108821688A684027BA43D8
:101B70008A6080F31088E36700202066EFF310800E
:101B8000012181F3108821680A68B2430A6080F35A
:101B90001088206FFEF77FFC288B698B401A81B27A
:101BA00031E0288B698B401A81B2688B0028A1D064
:101BB00000299FD0EFF31080012585F31088156868
:101BC000FF272137BD43156080F31088EFF31080A5
:101BD000012282F31088226895686D086D00956077
:101BE00080F31088E367002020666066EFF31080C2
:101BF000012282F3108800E009E022681368B343F1
:101C0000136080F310882046FFF7DEFEF8BD05065E
:101C100006D50D0604D5A16E002900D05EE7F8BDFB
:101C20004006FCD54806FAD52046EFF31081012482
:101C300084F3108814684025AC43146081F3108845
:101C400083670021816600F0E0F8F8BD0F0800000E
:101C5000200100047126000810B5040003D0A06F15
:101C6000002802D007E0012010BD0021742001559A
:101C7000204600F027F82420A06720680168490862
:101C800049000160204600F02DFD0128ECD0606A7B
:101C9000002802D0204600F054FC20684168012250
:101CA000D20291434160206881680822914381609B
:101CB00020680168012211430160204600F0A6FC63
:101CC00010BD000010B586B0044614216846FEF72A
:101CD000FEFA17492068884227D1164882690121F7
:101CE00089030A43826182690A4005924269C900F8
:101CF0000A43426140690840059003204002009079
:101D00000220019000200290032003900120049003
:101D100009206946C006FEF76DFC002211461B2013
:101D2000FEF7FCFF1B20FEF7EDFF06B010BD000024
:101D30000038014000100240FFB50446806F83B0B8
:101D400017460D4620285ED1002D0AD0002F08D05E
:101D5000A168C001814207D12069002804D1E807A9
:101D600002D0012007B0F0BD204660300090007D19
:101D7000012848D0009801210175002080210851D8
:101D80002120A067FEF70EFD2646403601903782DF
:101D900077820120A1680003814202D120690028D6
:101DA00005D02F46002500990020087511E0002776
:101DB000F9E700228021204600F02EFD002815D1F1
:101DC000002F15D02168387808857F1C708A401E46
:101DD0007082708A019B002806980090E9D1002249
:101DE0004021204600F018FD002808D00320B9E764
:101DF00028882168C005C00D0885AD1CE6E72020B5
:101E0000A0670020AEE70220ACE77047FEE701685C
:101E10008A69D243920701D400228A6200688169EC
:101E2000C943C90703D08169012211438161704709
:101E3000F7B5044600680F468169C943C90636D420
:101E40004168890104D44168012292031143416031
:101E500000262546403520688069C043800612D59B
:101E6000781CF8D0FEF79EFC0299401AB84201D8BF
:101E7000002FF0D1616C2020014361646870AE7066
:101E80002E700120FEBD21681020C8612068202727
:101E9000C7612046FFF7BBFF20684168054A114033
:101EA0004160606C0421084360646F70E7E70020C4
:101EB000FEBD000000E800FEF0B50668059C7568F0
:101EC000064F600D384385438805800D1104084393
:101ED0001843204305437560F0BD0000FF63FF0316
:101EE000F8B51D4617460E46044609E0681C07D0A3
:101EF000FEF758FC0699401AA8420BD8002D09D0CD
:101F000020688169304688430FD00020B842EDD068
:101F10000020F8BD616C2020014361644034607092
:101F20000020A07020700120F8BD0120EEE7000025
:101F3000F7B50027202605460446403528E0204610
:101F4000029A0199FFF774FF002801D00120FEBD1D
:101F500020688069C043800611D420688169C94324
:101F6000490702D4218D002917D1C6612068416834
:101F70000E4A1140416067646E70AF7013E0FEF767
:101F800011FC0299411A0198814208D8002806D014
:101F900020688069C0434007D1D40020FEBD606C3A
:101FA000304360646E702F70D0E7000000E800FEE0
:101FB00070B516460D4604460FE0324629462046C7
:101FC000FFF736FF002801D0012070BDFEF7EAFBC5
:101FD000801BA84208D8002D06D020688069C04325
:101FE0008006EAD4002070BD616C2020014361644A
:101FF000403460700020A0702070E5E770B5164690
:102000000D46044611E0324629462046FFF710FFF0
:10201000002801D0012070BD681C06D0FEF7C2FB6D
:10202000801BA84208D8002D06D020688069C043D4
:102030008007E8D4002070BD616C202001436164FA
:10204000403460700020A0702070E3E7F0B587B0E6
:1020500014216846FEF73BF92C4842690121C90466
:102060000A43426142690A4005924269C9000A4333
:10207000426142690A400592426949110A4342613C
:1020800042690A400592426949000A434261406937
:1020900009260840F6060590002220213046FEF76A
:1020A0007BFB1B4F012280213846FEF775FB012286
:1020B00040211848FEF770FB0120400300902120CA
:1020C000000400240190694602943846FEF792FA13
:1020D0002020012500900294694601950394304622
:1020E000FEF788FA802000900294694601950394D7
:1020F0003846FEF77FFA4020009002946946019529
:1021000003940448FEF776FA07B0F0BD00100240D1
:10211000000800480004004810B513481149016048
:1021200012494160002181600161416181610122A8
:10213000C161C2600162FEF79FFB002801D072B648
:10214000FEE700210848FEF733FB002801D072B6F5
:10215000FEE700210448FEF750FB002801D072B6CC
:10216000FEE710BD0058004010010020FFDE109077
:1021700010B5124810490160FF210531416001216D
:102180008902816007210902C160012242610021A8
:10219000016152028261016238224162C261816240
:1021A00007220163C2624163FFF7C8F8002801D02B
:1021B00072B6FEE710BD0000003001406C01002047
:1021C00010B511480F490160FF2105314160002120
:1021D000072212028160C260016101224261520243
:1021E0008261016238224162C26181620722016319
:1021F000C2624163FFF7A2F8002801D072B6FEE781
:1022000010BD000000380040D001002010B50C487F
:102210000A490160E1214902416000218160C160F9
:1022200001618161C1610C22016242614162FFF77B
:1022300013FD002801D072B6FEE710BD0038014042
:1022400034020020FEE77047F7B504464068FF26D9
:10225000053682B01546B0420CD10121A068C903F1
:10226000884202D04911884204D120680168402286
:10227000914301600095002280212046039B00F0DD
:10228000B1F82027002813D16068B04216D1A068A9
:10229000B902884202D0491188420FD1032100952A
:1022A000002249022046039B00F030F8002805D0A8
:1022B000206E38432066032005B0F0BD0020FBE708
:1022C000F8B50F460B46154600920321044600223E
:1022D000C90200F01BF82026002812D13B4600223C
:1022E00080212046009500F07DF8002809D10321C7
:1022F0003B46002249022046009500F007F80028DE
:1023000003D0206E304320660320F8BDFFB585B0B2
:102310000E460446002069460E9D17460871FEF7DA
:1023200041FA411B0898451AFEF73CFA03902068D1
:1023300023210C3002902A4800684843000D68436E
:1023400046E003204002864206D1002F04D10298C5
:1023500001786846017100790898401C39D0FEF771
:1023600021FA0399401AA84205D2002D03D0009803
:1023700000282BD02BE020684168E0229143416087
:102380006068C11FFD390CD10121A068C9038842D2
:1023900002D04911884204D120680168402291434B
:1023A00001600120A16A4003814207D121680A68C7
:1023B00082430A6021680A6802430A6001204034AF
:1023C000607700202077032009B0F0BD0025401E73
:1023D0000090206880683040B842B2D10020F3E716
:1023E00080000020FFB581B01E4604460A9DFEF71E
:1023F000D9F9401B351AFEF7D5F90746264800687B
:102400004001000D684339E0701C38D0FEF7CAF96E
:10241000C01BA84205D2002D03D0009800282BD065
:102420002BE020684168E022914341606068C11F51
:10243000FD390CD10121A068C903884202D049119D
:10244000884204D120680168402291430160012044
:10245000A16A4003814207D121680A6882430A6069
:1024600021680A6802430A60012040346077002036
:102470002077032005B0F0BD0025401E00902068A5
:1024800081680298884305D0002103988142BBD11E
:102490000020EFE70121F8E78000002070470000EE
:1024A00010B507480188002901D0491E018005495F
:1024B0000888002801D0401E0880FEF7D5FB10BD1B
:1024C000020000207000002070B594B030216846F2
:1024D000FDF7FDFE00240E940F940A201394009043
:1024E0001020099404900D94012505200C94129459
:1024F000C00410941194039502260A90089607953B
:102500000B946846FEF756FD002801D072B6FEE730
:1025100007200C900E9401210D960F940CA8FEF745
:1025200075FC002801D072B6FEE710A81095129431
:10253000FEF7F8FB002801D072B6FEE714B070BDBC
:10254000704710B5818CC90707D001684A6801231C
:102550005B049A43836A1A434A60818C890707D5D2
:1025600001684A6801231B049A43C36A1A434A60FC
:10257000818C490707D501684A6801239B049A4367
:10258000036B1A434A60818C090707D501684A68C2
:102590000123DB039A43436B1A434A60818CC906CB
:1025A00007D50268916801231B039943836B194384
:1025B0009160818C890607D501688A6801235B03D5
:1025C0009A43C36B1A438A60818C490612D503680B
:1025D0005A6801210905046C8A4322435A60026C3F
:1025E0008A4207D10268516803235B059943436C13
:1025F00019435160818C090607D501684A68012397
:10260000DB04806C9A4302434A6010BDF8B504466F
:10261000002680300660FEF7C5F805462068006891
:10262000124F000709D501212B46002249052046FB
:10263000009700F0F1F800280DD1206800684007ED
:102640000BD501212B46002289052046009700F07A
:10265000E3F8002801D00320F8BD2020A067E06740
:102660002666603426750020F8BD0000FFFFFF01DC
:1026700010B5406A0022014640314A834A82FFF782
:10268000A4F910BD10B5EFF31081012282F3108878
:1026900002681368FF242134A343136081F3108878
:1026A000EFF31081012282F31088026893685B08BF
:1026B0005B00936081F31088016E01290BD1EFF369
:1026C0001081012282F31088026813681024A3434A
:1026D000136081F310882021C167002101664166E3
:1026E00010BD000070B5044680682169E2690843A6
:1026F000616900251143226808431168404B194065
:102700000143116021684868032212039043E26884
:1027100010434860A169206A084321688A680B2336
:102720001B029A4302438A6036492068884210D1CE
:102730003548006B8007800F0ED0012805D0022895
:1027400005D003280AD1022109E0042107E008216D
:1027500005E02E49884201D1002100E0102101202E
:10276000E369C0032A4A2B4E834223D1002906D0B5
:10277000022907D0042907D0082937D108E0FEF73D
:10278000C9FB03E0104603E0FEF7D4FB002831D07C
:10279000616840004A088018FDF79BFD80B2014641
:1027A0001039B14222D81B49491C01400007400F93
:1027B00008431DE0002906D0022907D0042907D0CC
:1027C000082913D108E0FEF7A5FB03E0104603E05B
:1027D000FEF7B0FB00280DD061684A081018FDF71D
:1027E00078FD80B201461039B14201D9012501E0DE
:1027F0002168C86000206066A066284670BD0000A1
:10280000F369FFFF0038014000100240004400401F
:1028100000127A00EFFF0000FFB581B005461746B1
:10282000044660350A9E55E0701C53D0FDF7BAFF90
:102830000499401AB04230D8002E2ED0206801688A
:10284000490747D5C069C043000543D4012021682A
:10285000C0020862EFF31080012181F31088216823
:102860000B68FF22A13293430B6080F31088EFF3D3
:102870001080012181F3108821688A685208520073
:102880008A6080F310882020A067E0678034206091
:1028900000202875032005B0F0BDEFF31080012162
:1028A00081F3108821680B68FF22A13293430B60EB
:1028B00080F31088EFF31080012181F310882168E4
:1028C0008A68520852008A6080F310882020A0672E
:1028D000E067DDE72068C1690298884304D00020E2
:1028E000B842A1D00020D6E70120F9E710B50B4986
:1028F00088880B4CC2B220787E2A04D08988094A85
:102900001154401C04E0002801D000F00FF8002012
:1029100020700548FFF75AF810BD0000203801402C
:1029200072000020C40000203402002070B534483A
:10293000012245788178403883795B1CDCB22B001A
:1029400000F07CF80835050F19232D2D2D350129B0
:1029500002D18178491C81708178052929D1827042
:1029600027E0012902D1C178491CC170C17805292D
:102970001FD1C2701DE0012902D10179491C0171EA
:102980000179052915D1027113E0012902D141799C
:10299000491C4171417905290BD1427109E0012996
:1029A00000D184718179052903D1827101E0002E63
:1029B0001BD0FF21C171134A0121445CC379491C1A
:1029C0006340D35CC9B2C3710729F6D3DBB27E2161
:1029D0007D227E2B0AD07D2B0BD001720922084963
:1029E000642340390848FFF7A7F970BDC2715E2221
:1029F00001E0C2715D22027241720A22EFE700001B
:102A0000C4000020302F000834020020F8B5040C68
:102A10008BB2264682B25E430D0C1046370C5843EB
:102A2000360480190021794116466E43370C36046E
:102A30008019794126466E438919F8BD30B4744631
:102A4000641E2578641CAB4200D21D46635D5B00AA
:102A5000E31830BC184700008307FF22DB0E9A40C2
:102A60008907090E9940002808DB830809489B0064
:102A70001B18186890430843186070470007000F40
:102A80000838830804489B001B18D8699043084302
:102A9000D861704700E400E000ED00E096B0FEF77A
:102AA000EBF8FFF711FDFFF7D1FAFFF735FBFFF762
:102AB0005FFBFFF7ABFBFFF783FBFE49FE480224F9
:102AC00012C0FE49416001600838FEF78FF8002807
:102AD00001D072B6FEE7FA48016820221143016076
:102AE000F5487E21D8380170002545708570012693
:102AF000C67004710323437104228271C57105728B
:102B000001750146092280310A704A708A70CA70C4
:102B10000A714A718A71CE710D724D722422694612
:102B20000A714A718A71CB7108A90D714D718D714D
:102B30000D744D748D740D774D778D7710A90D72CE
:102B40004D728D72002739464554491CC9B20F2970
:102B5000FAD37E22027045708670C6700671467187
:102B60008671FF21C1710121445CC379491C634016
:102B7000D44CC9B2E35CC3710729F5D3D9B27D2324
:102B80007E2922D07D2923D002720922CA49CA484F
:102B90006423D839D830FFF7CFF800BF00BF00BF9B
:102BA00000BF00BF00BF00BF00BF00BF00BF00BF2D
:102BB00000BF00BF00BF00BF00BF00BF00BF00BF1D
:102BC000C14C6088002809D089E0C3715E2101E012
:102BD000C3715D21017242720A22D7E7BB480169C5
:102BE0000122920511430161016991430161FFF7DF
:102BF00093FA3220B24A60801068202108431060A6
:102C0000B348806949040843B149886100BF00BFE7
:102C100000BF00BF0A23AC49A7480222091D10309B
:102C2000FEF75CFCAA48816940200143A848816105
:102C3000A548001D008840BAA0816189884201D062
:102C40006081267000BF00BF00BF00BF00BF00BF93
:102C500000BF00BF00BF00BF0A20009096480123BC
:102C60000CAA1E214C38FDF761FE00BF0A2000901F
:102C70009148012309AA1C214C38FDF757FE0A2070
:102C800000908D48012312AA1A214C38FDF74EFE00
:102C900000BF0A200090884801230FAA18214C3851
:102CA000FDF744FE84484C38FDF7CBFDFFF734FABE
:102CB00008A90879097C8901084320616169884273
:102CC00001D0E680606108A9087F10A9097A09028D
:102CD0000843A061E169884201D02681E061207843
:102CE00000285CD02570A38900207A498200895889
:102CF000194208D0744920310A5C521CD2B20A54DD
:102D0000052A00D10E54401CC0B20F28EDD36E48E6
:102D1000203041780278C9000A43674958390A705F
:102D2000C3788278DB001A434A7043790279DB006A
:102D30001A438A70C3798279DB001A43CA70437AD6
:102D4000027ADB001A430A71C37A827ADB001A43E3
:102D50004A71437B027BDB001A438A71807BFA0055
:102D60001043C8715C480D728169000301435A48E1
:102D7000816100BF00BF00BF00BF64234E4909222C
:102D800058390846CC30FEF75DFC00BF00BF00BFDD
:102D900000BF51488169802001434F488161E0882C
:102DA00000284DD0E580236900204A4982008958D7
:102DB000194208D044492F310A5C521CD2B20A543D
:102DC000052A00D10E54401CC0B20C28EDD33E4859
:102DD00004232F3041780278C9000A4369460A71FA
:102DE000C1788278C9000A4369464A7141790279FB
:102DF000C9000A4369468A71CF71C1798279C900D5
:102E00000A4369460A72417A027AC9000A4369464E
:102E10004A72827AC07AC00002438A72CF726420FA
:102E20000090254802AA1F214C38FDF707FE6420B8
:102E300000902148042301AA1D214C38FDF7FEFD16
:102E4000208900286CD02581A369224C00208200B3
:102E5000A158194215D01C494F310A5C521C0A5422
:102E6000052803D0062801D0072806D10A79521C6C
:102E7000D2B20A71052A00D10E710A5C052A00D16E
:102E80000E54401CC0B20E28E1D30F484F30417899
:102E90000278C9000A4369460A73C1788278C9007A
:102EA0000A4369464A7341790279C9000A4369466F
:102EB0008A7313E0003000405C010020FF0F000027
:102EC00000380140302F00080000002000100240B0
:102ED000000400483030000800080048CF73417AF1
:102EE000027AC9000A4369460A74C17A827AC90023
:102EF0000A4369464A74027B407B6424C000024353
:102F00008A74CF74042304AA1B2108480094FDF797
:102F100095FD042303AA192104480094FDF78EFDB2
:102F200002484C30FDF798FE37E600001001002003
:102F3000005EBCE2613FDD83C29C7E20A3FD1F4199
:102F40009DC3217FFCA2401E5F01E3BD3E6082DC89
:102F5000237D9FC1421CFEA0E1BF5D0380DE3C6279
:102F6000BEE0025CDF81633D7C22C09E1D43A1FF69
:102F70004618FAA427799BC584DA3866E5BB590759
:102F8000DB856739BAE406581947A5FB7826C49A49
:102F9000653BD987045AB8E6A7F91B45C6987A2439
:102FA000F8A6441A99C7257B3A6486D85B05E7B929
:102FB0008CD2306EEDB3510F4E10F2AC2F7193CD19
:102FC000114FADF3702ECC92D38D6F31B2EC0E5009
:102FD000AFF1134DCE90722C6D33D18F0C52B0EEF9
:102FE000326C8ED0530DEFB1F0AE4C1291CF2D73E9
:102FF000CA947628ABF517490856B4EA6937D58BD9
:103000005709EBB536688AD495CB2977F4AA4816C8
:10301000E9B7550B88D6346A2B7597C94A14F6A8B8
:10302000742AC896154BA9F7B6E80A54D7896B35A8
:103030000100000002000000040000000800000081
:103040001000000020000000400000008000000090
:103050000001000000020000000400000008000061
:103060000010000000200000004000000080000070
:103070000000010000000200000004000000080041
:103080000000100000002000000040000000800050
:103090000000000100000002000000040000000821
:1030A0000000001000000020000000400000008030
:1030B00000000000000000000102030406070809E8
:1030C0000000000001020304E830000800000020B6
:1030D00084000000F80000086C3100088400002023
:1030E00094080000140100080000E803000000003C
:1030F00000000000000000000000000000000000D0
:1031000000000000000000000101010101010101B7
:10311000010101010101010101010101010101019F
:10312000010101010101010101010101010101018F
:10313000010101010101010101010101010101017F
:10314000010101010101010101010101010101016F
:103150000101010101010100000000000100000067
:0C316000040000000000000000127A00D3
:04000005080000B53A
:00000001FF
